:100000000C947E030C949B030C94B6030C949B03FA
:100010000C949B030C949B030C949B030C949B03E8
:100020000C949B030C949B030C94921E0C949B03C6
:100030000C949B030C949B030C949B030C949B03C8
:100040000C949B030C949B030C949B030C949B03B8
:100050000C949B0300000000000000000000000062
:100060000000000000000000000000000000000090
:1000700000000000000000007E0F00D4FFFFFFC75B
:100080000000007800000000000000002A2B28007B
:100090000000000000000000000000000000002937
:1000A000000000002C1E3420212224342627252E77
:1000B000362D3738271E1F202122232425263333AF
:1000C000362E37381F0405060708090A0B0C0D0EDB
:1000D0000F101112131415161718191A1B1C1D2FA7
:1000E0003130232D350405060708090A0B0C0D0EC7
:1000F0000F101112131415161718191A1B1C1D2F87
:100100003130354C00047F3F1F6432146432147860
:100110003C1E1E140A05000101010101010101013B
:1001200002020202020202020203030303030303A8
:100130000304040404040404050505050506060675
:100140000606070707070708080808090909090A32
:100150000A0A0B0B0B0C0C0C0D0D0D0E0E0E0F0FD7
:100160000F10101111111212131314141515161665
:100170001717181819191A1A1B1B1C1D1D1E1E1FD4
:100180002020212222232424252626272829292A23
:100190002B2C2D2D2E2F303132323334353637384B
:1001A000393A3B3C3D3E3F40414243444546474847
:1001B000494A4C4D4E4F50515354555658595A5B1D
:1001C0005D5E5F616264656668696B6C6D6F7072BD
:1001D000737577787A7B7D7E8082838587888A8C29
:1001E0008E8F91939596989A9C9EA0A2A3A5A7A95D
:1001F000ABADAFB1B3B5B7BABCBEC0C2C4C6C9CB54
:10020000CDCFD1D4D6D8DBDDDFE2E4E7E9EBEEF009
:10021000F3F5F8FAFDFFFFAA7F5540222325262893
:10022000292A2C2D2F3032333536383A3B3D3E408B
:1002300042434547494A4C4E5051535557595A5CD1
:100240005E6062646668696B6D6F71737577797BE8
:100250007D7F81838587898A8C8E90929496989AE7
:100260009C9E9FA1A3A5A7A8AAACAEAFB1B3B4B6FC
:10027000B8B9BBBCBEBFC1C2C3C5C6C7C9CACBCC57
:10028000CDCED0D1D2D2D3D4D5D6D7D7D8D9D9DA2A
:10029000DADBDBDBDCDCDCDCDCDDDDDDDDDCDCDC9F
:1002A000DCDCDBDBDBDADAD9D9D8D7D7D6D5D4D3C7
:1002B000D2D2D1D0CECDCCCBCAC9C7C6C5C3C2C19C
:1002C000BFBEBCBBB9B8B6B4B3B1AFAEACAAA8A7F9
:1002D000A5A3A19F9E9C9A98969492908E8C8A89B1
:1002E000878583817F7D7B79777573716F6D6B698E
:1002F00068666462605E5C5A5957555351504E4C63
:100300004A4947454342403E3D3B3A383635333211
:10031000302F2D2C2A292826252322165C1E001F6B
:1003200000200021002200230024002500260027B1
:10033000002D002E002A0035002B0014001A0008A2
:1003400000150017001C0018000C00120013002FED
:1003500000300031004C003900040016000700098D
:10036000000A000B000D000E000F003300340000E7
:100370000028004B00E10001001D001B00060019D1
:1003800000050011001000360037003800E500526B
:10039000004E00E000E300E2000000000000002C3E
:1003A0000000000000E6000151E400500051004F41
:1003B0000035003A003B003C003D003E003F00405D
:1003C00000410042004300440045004C004600014B
:1003D00000010001000100005C0100010001004972
:1003E000000100010001004800010001000100C3FC
:1003F0005CC65CC85CCA5C01000100010001000130
:100400000001000100000049004A00E1000100C5B0
:100410005CC75CC95C010001000100A800C25C016E
:10042000000100E500A9004D00E000E300E200004B
:100430000000000000010000000000E6000100E4F0
:10044000000100AA000100010001000100010001FB
:100450000001000100010001000100010001000194
:100460000001000100010001000100010001000184
:10047000000100010001000100010001004800012D
:100480000001000100010001000100010001000164
:100490000001000100010001000100000001000155
:1004A0000001000100010001000100010001000144
:1004B0000001000100010001000100010001000134
:1004C0000001000100000000000000010000000029
:1004D0000001000100010001000100010001000114
:1004E0000001000100010001000100010001000104
:1004F00000010001000100010001000100010001F4
:1005000000010001000100010001000100010001E3
:10051000000100480001000100010001000100018C
:1005200000010001000100010001000100010001C3
:1005300000000001000100010001000100010001B4
:1005400000010001000100010001000100010001A3
:100550000001000100010001000100000000000096
:100560000001000000000001000100010001000185
:1005700000010005010902A10185020901A1000590
:100580000919012908150025019508750181020541
:1005900001093009311581257F9502750881060909
:1005A000381581257F950175088106050C0A3802EA
:1005B0001581257F950175088106C0C00501098058
:1005C000A101850319012AB700150126B70095017D
:1005D00075108100C0050C0901A101850419012ACB
:1005E000A002150126A002950175108100C00660C9
:1005F000FF0961A1010962150026FF009520750819
:1006000081020963150026FF00952075089102C03C
:1006100005010906A101050719E029E715002501D3
:100620009508750181029501750881030507190078
:1006300029FF150026FF0095067508810005081999
:10064000012905950575019102950175039103C076
:1006500016034400490053004300490050004C0079
:1006600049004E0045000000200363006F00730046
:1006700065007900660061006E006E00690074001C
:100680007500740074006900000004030904090285
:100690005B00030100A03209040000010301010016
:1006A0000921010100012240000705810308000122
:1006B00009040100020300000009210101000122D8
:1006C0002200070584030800010705040308000150
:1006D00009040200010300000009210101000122B8
:1006E0007B000705830308000112011001000000D0
:1006F00008626B69680100010200010011241FBE3D
:10070000CFE5D8E0DEBFCDBF22E0A6EEB0E001C06D
:100710001D92A93CB207E1F710E0A0E6B0E0ECEAD8
:10072000FAE402C005900D92A63EB107D9F70E94E7
:10073000B61E0C9435250C940000A82FB92F80E02C
:1007400090E041E050EA609530E009C02D918227A9
:100750009795879510F084279527305EC8F36F5FD3
:10076000A8F30895EADF8D939D930895CF93CFB7B3
:10077000CF93DF93C395839BE9F7839B10C0839B43
:100780000EC0839B0CC0839B0AC0839B08C0839BC5
:1007900006C0C091A302C395C093A3028EC06F93FD
:1007A000C091A202DD27C955DD4F2F9365E5839BDC
:1007B00003C02F916F91E1CF0F931F934F9320E0D0
:1007C00040E15F9300B30C7003FB27F93F9350E0C7
:1007D0003BE039C01C7040642F77012F5F5F1EC063
:1007E000406810B31C702F7752501FC0406400B394
:1007F0002F770C70D1F15F5F00C023C0406210B34F
:100800002F771C7091F15F5F00C025C00C7010271E
:10081000515012F45D5F0000115027952C3F10B32A
:10082000C8F61C700127015027952C3FC8F64227B7
:10083000499300B30C7010274F73115027952C3F2C
:10084000A8F64695469510B31C7079F00127015023
:1008500027952C3F98F66B5A60F3315000B3B0F6F1
:1008600000C010E81ABF00271CC03B503195C31BC5
:10087000D04010E81ABF0881033C21F10B3411F17C
:100880002091A0021981110F1213EDCF4A81441F4C
:10089000093679F10D3211F0013E29F74F7009F058
:1008A000042F0093A6023F915F914F911F910F91EA
:1008B0002F916F91CAB7C7FD5DCFDF91CF91CFBFA9
:1008C000CF9118952091A602222369F31091A402DA
:1008D000112309F049C034300AF448C03093A4020F
:1008E0002093A1021091A2023BE0311B3093A2029F
:1008F0003DC00091A4020130BCF50AE54F7049F4F7
:1009000030917B0034FD33C000937B00CDE7D2E013
:1009100032C0433059F0443091F03091880234FDB8
:1009200026C000938802C9E8D2E025C03091BD02FC
:1009300034FD1DC00093BD02CEEBD2E01CC030914F
:10094000940234FD14C000939402C5E9D2E013C0B0
:10095000052710E000C0000002BB1AC0052710E008
:10096000221F1DC010E021C04AE502C032ED432F16
:10097000C4E1D0E032E011B31C60939A02B311BB22
:100980005CE020E865E320FF052702BB279517956B
:100990001C3FF0F66695B8F7B1F720FF052702BBBC
:1009A000279517951C3FD0F62795179517FF052714
:1009B00000001C3F02BBB0F629913A9519F7037F5E
:1009C0001091A502110FC651D04002BB11F0109337
:1009D000A00210E81ABF086011B3137F402F437FB5
:1009E00054E05A95F1F702BB11BB42BB5CCFFC014E
:1009F0008381833089F130F48130F1F0823021F14C
:100A000080E00895813209F446C08232C9F724811A
:100A100035812130310509F45CC02115310509F417
:100A200050C02230310561F783E795E0909378025A
:100A3000809377028BE7089589EE96E09093780291
:100A40008093770282E108958EE896E09093780291
:100A5000809377028BE5089582818130A1F088230D
:100A600051F0823069F680E596E0909378028093A9
:100A7000770286E108958AE896E090937802809361
:100A8000770284E0089588E696E090937802809358
:100A9000770280E208958281813081F0882331F0ED
:100AA000823009F0ADCF89ED96E002C080EA96E091
:100AB000909378028093770289E0089589EB96E01D
:100AC000F7CF80E196E0909378028093770280E4FC
:100AD00008952EEE35E03093780220937702089542
:100AE000089580917202089588E198E00FB6F89415
:100AF000A89581BD0FBE91BDA895F894D8E0CEE52C
:100B000028E3299320E0299314BEFFCF08959C0188
:100B10004FB7F8948091BB019091BC01A091BD01A9
:100B2000B091BE014FBF821B930B08952FB7F8946D
:100B30008091BB019091BC01A091BD01B091BE011B
:100B40002FBF08952091B9013091BA0128173907B4
:100B500071F09093BA018093B901E091B701F091DF
:100B6000B801309721F00084F185E02D09940895B3
:100B70002091B5013091B6012817390771F0909393
:100B8000B6018093B501E091B701F091B8013097BB
:100B900021F00680F781E02D09940895E091B701D6
:100BA000F091B801309721F00190F081E02D099487
:100BB00080E00895FA01811101C0FB0109940895B4
:100BC0008091B001982F9E7F29F48170826080937C
:100BD000B00108958A34E8F381708864F8CFAF9249
:100BE000BF92DF92EF92FF920F931F93CF93DF9309
:100BF000082F162FE901E42FF0E0EA5EFE4F6111A5
:100C000010C0E4915E2F4E2F4983E8835A83DF9111
:100C1000CF911F910F91FF90EF90DF90BF90AF9019
:100C20000895E62EF12C4491D42EE42FF0E026E036
:100C3000829FC00111242FEF30E0B9010E944024AF
:100C4000802F90E0880F991F55E5569FD001579F40
:100C5000B00D11248A1B9B0B982F990F890F5901F6
:100C6000AE18BF08AE9ED001AF9EB00DBE9EB00DB7
:100C700011245B2F189F80011124012F1127590186
:100C8000A01AB10AAE9E8001AF9E100DBE9E100D3F
:100C900011245901A81AB108AE9CC001AF9C900D57
:100CA000BE9C900D1124892F9927281B390B2E9F4C
:100CB000C0012F9F900D3E9F900D1124E92F6230AF
:100CC0007105A1F050F46115710509F49DCF6130F3
:100CD000710581F0EB2F512F97CF6430710569F0CA
:100CE00080F06630710509F48FCFF4CFE42F4B2FDD
:100CF000592F8ACFE42F412F87CFEB2F542F492F25
:100D000083CF4B2F5D2DE12F7FCF0E9496059C0155
:100D10009091830180918401982B21F03093800180
:100D200020937F019091850180918601982B21F07D
:100D300030937E0120937D01E091B701F091B801DD
:100D4000309749F082E0809381010480F581E02DA5
:100D500081E891E00994089540918301803F59F41E
:100D60008091840187FF0DC01092840141110BC056
:100D700010927B0108C0813F81F480918401181694
:100D80009CF3442381F08091850190918601892B09
:100D900009F05AC010927A010895823F49F447FF42
:100DA000F0CF10928301809184018111ECCFE0CFCC
:100DB000833F19F41416ACF3E4CF90918501893F79
:100DC00029F41916F4F610928501DBCF8A3F19F445
:100DD00097FFD7CFF8CF909186018B3F29F497FFEB
:100DE000D0CF10928601CDCF8C3F19F41916CCF3D9
:100DF000C8CF9CE0980F953090F4845F990B21E068
:100E000030E0B90102C0660F771F8A95E2F7CB0187
:100E1000809590918201892380938201B2CF8D3F8A
:100E200031F480917C018E7F80937C01AACF8E3F2C
:100E300021F480917C018D7FF7CF8F3F09F0A1CF06
:100E400080917C018B7FF0CF089580917C0180FDA3
:100E500016C081FD16C082FD16C080917A018823DC
:100E6000A1F0883280F428E0829FC001112468E25A
:100E700070E00E945424862F672B39F0089582E099
:100E8000089584E0089588E0089581E008958091B0
:100E90007C0180FD14C081FD14C082FD16C08091CC
:100EA0007B01882381F08E3180F420E5829FC00190
:100EB00011246EE170E00E945424862F089584E18D
:100EC000089588E2089588E0089580E50895803FB8
:100ED00031F40E9447078195809384010895813FF2
:100EE00019F40E944707F8CF823F31F40E94470768
:100EF0008195809383010895833F19F40E944707E9
:100F0000F8CF893F29F40E94250780938501089531
:100F10008A3F21F40E9425078195F7CF8B3F31F45A
:100F20000E94250781958093860108958C3F19F4CE
:100F30000E942507F8CF9CE0980F953070F4845FED
:100F4000990B21E030E001C0220F8A95EAF78091E9
:100F50008201822B8093820108958D3F31F480912C
:100F60007C01816080937C0108958E3F21F4809103
:100F70007C018260F7CF8F3FB9F780917C0184605C
:100F8000F1CF80E00895F894E82FE295EF70F0E05B
:100F900031A9282F2F7081E090E001C0880F2A9599
:100FA000EAF7982F9095932391AB92A9892B82AB66
:100FB000789408959091590192FF06C0282F2871C6
:100FC0002830F9F4877F846093FF06C0282F2871AA
:100FD0002831F1F4877E846120915A0120FF06C0F8
:100FE000382F38713830D9F4877F816021FF06C0EF
:100FF000282F28712831D1F4877E816194FD877E66
:101000000895282F24712430F9F68B7F8860DCCF77
:10101000282F2471243101F78B7E8861DDCF382F92
:101020003171313019F78E7F8860E0CF282F217120
:10103000213121F78E7E8861E1CFCF93DF93EC01E0
:1010400082389105A9F1D8F58133910509F496C04C
:1010500048F58932910509F48AC08A9709F495C048
:10106000C11521E5D20708F0BCC0C11530E5D30792
:1010700008F014C1C83ED10508F09CC0C03ED1059F
:1010800060F5C83AD10508F087C0C53AD10508F027
:10109000FDC0C130D10509F12097F9F0C430D10568
:1010A000E0F440C08533910509F45AC0C997C1F6F0
:1010B00080915901837089F0C0EED0E00EC0833E6C
:1010C000910599F170F4803E910501F1823E910500
:1010D00039F68091590182FD21C0CE01DF91CF9177
:1010E0000895863E910561F1873E910571F1843E38
:1010F000910509F0B5CF80915A0181FFEECF809123
:101100005901C7EED0E084FD0DC0E7CF80915901B1
:1011100080FD12C190915A0190FFDFCFC3EED0E065
:1011200084FFDBCFD0E0C0E0D8CF8091590182FDB1
:1011300006C190915A0190FDBFCF84FFCECFF2CF70
:101140008091590183FDDDCFC8CF8091590183FD86
:10115000F9C090915A0191FFF0CFC4EED0E0BDCF1D
:101160008091590185FFB9CFC9E2D0E0B6CF809117
:10117000590185FFB2CFC5E3D0E0AFCF80915901CF
:1011800086FFABCFCAE2D0E0A8CF8091590186FF9D
:10119000A4CFC1E3D0E0A1CFCF3BD10518F6C85A08
:1011A000D0E0CC0FDD1FC158DF4F0990D881C02D92
:1011B000D46493CFC11540E2D40758F4C11581E03F
:1011C000D80708F08ACFC03FD10508F4ABCFD0656F
:1011D00084CFC11590E4D90708F4A4CFDF70D06A9A
:1011E0007CCFC11525E5D20700F5C11534E5D3073D
:1011F00008F08AC0C11543E5D40708F071C0C115D5
:1012000082E5D80708F467C0CE018370992721E0F2
:1012100030E002C0220F331F8A95E2F7C695C695CB
:1012200080E2C89FE001112452C0C11599E5D90799
:10123000A8F4C11528E5D20708F06BC0C11536E542
:10124000D30708F06FCF8C2F0E94DA07C82FD0E0A9
:10125000DC2FCC27CC27DF71D0623FCFC1154AE508
:10126000D40708F45BC0CE0190568115904208F077
:1012700059CF8D2F8F710E94DA0790E0982F882721
:1012800088279F719C012C2BE901E6CFC55AD0E03D
:10129000C458DF4FC881D0E0D0641FCFCE01E4E056
:1012A00096958795EA95E1F783702C2F26952695DC
:1012B000237040E2249F90011124382B8C2F8370DF
:1012C000C1E0D0E002C0CC0FDD1F8A95E2F7C22B4F
:1012D000D32BDC6802CFDC2FCC27C16FD06AFDCEC8
:1012E000CE018370992721E030E002C0220F331F26
:1012F0008A95E2F7C695C69590E2C99FE001112450
:10130000C22BD32BDA68E9CEDC2FCC27C46FD06A8E
:10131000E4CEDC2FCC27C06FD06ADFCE8C2F8F704D
:101320000E94DA0734E0D695C7953A95E1F7CF7079
:101330009C2FEC01D069D1CEC9E3D0E0CECEC2EE75
:10134000D0E0CBCEC6EED0E0C8CE80914A0181116C
:1013500010924A01089580959091490198239093A5
:10136000490108958091490190914801892B80930A
:10137000E80090914A01992391F0892B8093E8002D
:1013800020E08AEE90E0FC013191CF0131112F5F16
:10139000F0E0803F9F07B9F721110E94A509E09175
:1013A000B701F091B801309731F00280F381E02D60
:1013B00088EE90E009940895EAEEF0E091918913A7
:1013C00003C0DF0111971C9290E0E03FF907B1F7ED
:1013D0000895AAEEB0E0EFEF90E02D91821751F062
:1013E000EF3F19F4211101C0E92F9F5F9630A9F753
:1013F000EF3F09F408950E2E000CFF0BE851FF4F4C
:10140000828308958091460190911501981301C03F
:1014100008958F5F8770FACF2FE0929F800D11247F
:10142000982F977086958695869523E0829FF00188
:101430001124EF50FF4F50E040E080E0219130E078
:10144000092E02C0369527950A94E2F721703327BA
:10145000042E01C0220F0A94EAF7822B4F5F5F4FE0
:101460004330510559F708952FE0929F800D1124C4
:10147000982F977041E001C0440F9A95EAF786953E
:101480008695869593E0899FF0011124EF50FF4FD8
:1014900090E080E070E05191DF0111979B01082EF0
:1014A00002C0369527950A94E2F7217021952527E9
:1014B000242325272C9301968330910561F7089505
:1014C00090E080E00E94B80590E080E00E94A205D4
:1014D000109248010E94B20986E0E1E8F1E0DF01E4
:1014E0001D928A95E9F710927B0110927A01109271
:1014F0007C010C94850680937C020C94600A809198
:101500007C02982F9670963019F488600C947B0AB0
:10151000877FFCCF21E030E001C0220F8A95EAF7F7
:10152000209580917C0282230C947B0A9091470144
:101530008095892380934701282F277091F4282FC5
:10154000082E000C330B9217130659F090915A0194
:1015500092FD07C08595859585950E948A0A10920F
:101560004701089521E030E001C0220F8A95EAF793
:1015700080917C02822B0C947B0A80934B010C940B
:10158000600A882321F00E94AB090C94B2090895E7
:10159000882339F090914901982B909349010C943C
:1015A000B2090895882309F452C0823871F40E9468
:1015B000CE0581FF4CC089E30E94E9090E94B2096F
:1015C00089E30E94DC090C94B209833859F40E9423
:1015D000CE0580FF3CC083E50E94E9090E94B20964
:1015E00083E5EFCF843859F40E94CE0582FF2FC0E7
:1015F00087E40E94E9090E94B20987E4E2CF9CEFE8
:10160000980F913AF0F290E2980F983050F487706A
:1016100091E001C0990F8A95EAF7892F0E94AB09E2
:10162000D2CF9BE5980F933020F490E080E00C94AB
:10163000B80598E5980F973120F490E080E00C947D
:10164000A205803F20F00E94AC060C948506089508
:1016500081FF02C0DD9A0895DD980895CF93DF934E
:101660008091A402835087FD14C09091A202CCE027
:10167000D0E0C91BD109C955DD4F9091A10290312D
:1016800008F06BC0883009F453C0109267021092C2
:10169000A40280917B0084FF3EC080917A008F3F3E
:1016A000D1F1C82F893008F0C8E0982F9C1B909387
:1016B0007A0090917D0228E8922790937D028823FA
:1016C000E9F080917702909178022091760226FFCE
:1016D00006C1FC012C2FAEE7B2E034913D93319668
:1016E0002150D9F79C012F5F3F4F8FEF8C0F820F56
:1016F000932F911D90937802809377026C2F8EE741
:1017000092E00E94B203CC5FCC3019F08FEF80934F
:101710007A00C0937B0084E190B39C7031F48150D7
:10172000D9F71092A5021092A002DF91CF910895EF
:1017300080916702893108F0A8CFE82FF0E0E95BDB
:10174000FD4F9E01285F3F4F999191932C173D07C4
:10175000D9F7885F809367029ACF9D3209F0A3C0C2
:10176000883009F094CF83EC80937D028AE58093E2
:101770007B00109276028881807609F447C080321F
:1017800029F58981813099F48C819D81892BF1F42F
:1017900089E692E0909378028093770288E09F81B7
:1017A000911131C09E81981770F5892F2CC082301D
:1017B00041F488E692E0909378028093770281E08A
:1017C000EECF8A3029F48B818093680280E0E7CFE6
:1017D0008930E1F78A819B818115924069F48C817F
:1017E0009D81892B49F481E0809375028E819F81D0
:1017F0009093740280937302888187FF52C08E8118
:1018000090E89093760280937A0041CF2A811092DB
:101810008602998191110AC01092870226E832E06F
:1018200082E03093780220937702B9CF953029F483
:101830002093A50226E832E0F4CF9630C1F49B81D4
:10184000913049F4CE010E94F70490E4909376021F
:101850008F3F91F2A4CF9230A9F3933099F3913254
:1018600089F3923279F390E49093760298CF98308E
:1018700089F0993019F420937102DCCF9A3071F01D
:101880009B30C1F69BE4909389029093BE029093A3
:101890009502D0CF21E732E081E0C3CF26E832E0E5
:1018A000FBCF8FEFADCF8091760287FFF0CE809196
:1018B000730290917402892B71F0809175028130CE
:1018C00051F4888180937202109274021092730214
:1018D00010927A00DCCE8EE180937B00D8CEDC01C2
:1018E0002C2FEEE7F2E03D9131932150E1F7FACE53
:1018F0001F93CF93DF93E82F792F162FEA0188816A
:1019000084FF1CC0298188E828272983CE010296FC
:10191000DC012E2F372F512F5E0FF90121912D93CE
:101920009F01452F4E1B1416C4F3612F0E94B20372
:101930001C5F1883DF91CF911F9108958AE58883FA
:10194000E5CF2091BD0224FF05C04DEB52E066E0DB
:101950000C94780C089590914602981307C020913A
:1019600044023091450226173707B9F080934602AA
:101970007093450260934402809341027093430246
:10198000609342028091BD0284FF07C04DEB52E09C
:1019900063E081E492E00C94780C0895BC0184E04B
:1019A0000C94AB0CBC0183E00C94AB0CCF93DF9395
:1019B000CAE0D0E08091880284FF1CC080913F0281
:1019C00090914002981799F028E0829FC00111245D
:1019D00048E852E068E081549E4F0E94780C809164
:1019E0003F0290E001968F70992780933F02DF912C
:1019F000CF9108950E942E0B8FE99FE00197F1F798
:101A000000C000002197B1F6F2CFCF93DF93EC0135
:101A1000A0914002B0E0CD0101968F7099272091EE
:101A20003F02281779F093E0AA0FBB1F9A95E1F7C0
:101A3000A154BE4F98E0FE0101900D929A95E1F7F6
:101A4000809340020E942E0B0E94D60C88E0FE017B
:101A5000A9E6B2E001900D928A95E1F7DF91CF916E
:101A600008958091B00180FD0AC0E2E9F1E01182A1
:101A700010821282339651E0E03BF507C1F7889A55
:101A800032B33E7F22B321604FB7F89482E991E0F0
:101A9000FC015191CF0168E022BB000000C057FF5C
:101AA00032BB550F000000C000C000C032BB00C0F8
:101AB0006A9591F7F1E0803B9F0751F74FBF8FE5A3
:101AC00094E00197F1F700C000000895EF92FF92B3
:101AD0000F931F93CF93DF938C01C2E9D1E0F12CD8
:101AE000E12CF80194816091B2018091B101F5E09F
:101AF000EF16F104FCF49923F9F09E014091B30133
:101B00000E94EF052FEFE21AF20A23968AE0E81608
:101B1000F10439F70E94310DF801848190E00196BB
:101B2000817099278483DF91CF911F910F91FF904E
:101B3000EF900895992309F39E0140E0E1CF8F9241
:101B40009F92AF92BF92CF92DF92EF92FF920F934C
:101B50001F93CF93DF93EC014C81042F10E0980189
:101B6000D8010E9426259B01AC010E94F1244B0163
:101B70005C01E0E2F0E0E01BF10BA5E5B0E0AC01B8
:101B80009B010E94F1246B017C019F01DF010E94F7
:101B900075249B01AC010E94FC249B01AC01280D23
:101BA000391D4A1D5B1DC701B6010E940425F22E96
:101BB000822F90E039E23F15D8F143E0249F900155
:101BC000112435952795122F109592E9C92E91E091
:101BD000D92E00E085E5E82EEF188E2D01FD8F2D22
:101BE0009601412F6091B2010E94EF050F5F53E013
:101BF000C50ED11C0A3089F70E94310D9C8181E00D
:101C0000992319F0903219F48FEF80937900809125
:101C10007900890F8C83DF91CF911F910F91FF90F5
:101C2000EF90DF90CF90BF90AF909F908F900895EE
:101C300025E530E0A901481B590BCA019A01220F82
:101C4000331F280F391F37FFBCCF2F5F3F4FB9CF4E
:101C50000F931F93CF93DF93C2E9D1E0FE0111826E
:101C600010821282339681E0E03BF807C1F710E062
:101C700000E080919001082E000C990B08171907BD
:101C80008CF180917800082E000C990B8017910739
:101C90004CF19E014091B3016091B2018091B1017C
:101CA0000E94EF050F5F1F4F23960A30110509F7B9
:101CB0000E94310D8091770090919001980F909340
:101CC000900120917800280F20937800121614F4C8
:101CD00099301CF0819580937700DF91CF911F910F
:101CE0000F910895198218821A82DCCFBF92CF9289
:101CF000DF92EF92FF920F931F93CF93DF93FC013C
:101D00008281DD24DA9480FD02C0DD24D39402E9CF
:101D100011E0D0E0C0E02AE0B22EF801118210827A
:101D2000128294E0E92EF12CC12C80918F018C0D50
:101D30008B300CF43DC06B2D0E943224892F082E6D
:101D4000000C990B8C179D0791F48091B3018E9D27
:101D5000A0018F9D500D1124559547955595479598
:101D600098016091B2018091B1010E94EF05CD0C04
:101D7000F1E0EF1AF108C9F621960D5F1F4FCA3046
:101D8000D10559F60E94310D80918F0191E0D91251
:101D900015C0811111C089E080938F01DF91CF912F
:101DA0001F910F91FF90EF90DF90CF90BF9008951B
:101DB00087FFC5CF865FC3CF8150EECF90E00196FD
:101DC000BE010E945424E8CFEF92FF921F93CF935D
:101DD000DF93EC0182E9E82E81E0F82E10E08C819F
:101DE00097014091B3016091B201810F0E94EF050C
:101DF000175E83E0E80EF11C1A3F89F70E94310D4F
:101E00009A818C8190FF08C08F5F8C83DF91CF9186
:101E10001F91FF90EF9008958150F7CF9091B001FE
:101E200090FF0CC0E2E9F1E0818360834283339646
:101E300091E0E03BF907C1F70C94310D08950F9341
:101E40001F93CF93DF9300D00F92CDB7DEB78C01F5
:101E50008091910181110AC09E012F5F3F4F4FEF8A
:101E60006FEF0E94EF058A8180939101F8016481F0
:101E7000613069F08091910140E0662361F040E0BB
:101E8000623011F44091910180E060E004C0609103
:101E9000910140E080E00E940E0FF801848190E003
:101EA000019663E070E00E94542484830F900F90A9
:101EB0000F90DF91CF911F910F910895CF93DF93F2
:101EC00000D00F92CDB7DEB79091B00190FF0AC05D
:101ED0009E012F5F3F4F0E94EF054B8169818A81F0
:101EE0000E940E0F0F900F900F90DF91CF910895E9
:101EF000CF93DF93EC01E0EBF1E0438162818C81D1
:101F00000E945E0F8C818F5F8C83DF91CF9108954B
:101F1000CF93DF93EC01EC81F0E0E55EFD4F44915F
:101F2000E0EBF1E0628181810E945E0F8C818F5F26
:101F30008C83DF91CF91089580E00E94280B10924E
:101F40008E0180915D01811117C081E080935D0158
:101F50008091B001982F917090935C018E7F809357
:101F6000B0012FEF80E792E0215080409040E1F7F0
:101F700000C000000C94310D0895CF93C82F882322
:101F800009F490C08238C1F40E94CE0581FD8AC058
:101F900089E30E94E9090E94B2092FEF81EE94E0E3
:101FA000215080409040E1F700C0000089E30E948A
:101FB000DC09CF910C94B2098338A1F40E94CE05BC
:101FC00080FD70C083E50E94E9090E94B2092FEFED
:101FD00081EE94E0215080409040E1F700C0000085
:101FE00083E5E5CF8438A1F40E94CE0582FD5AC076
:101FF00087E40E94E9090E94B2092FEF81EE94E084
:10200000215080409040E1F700C0000087E4CFCF2E
:102010008CEF8C0F813A68F4EAEEF0E08191C817FA
:10202000D9F120E0E03FF207C9F78C2F0E94E909BF
:10203000C0CF80E28C0F883068F4C77021E030E0B8
:1020400001C0220FCA95EAF780914901822B809343
:102050004901AFCFEBE5EC0FE33040F4F0E0E4589A
:10206000FF4F808190E0CF910C94B805E8E5EC0F2C
:10207000E73150F4F0E0EE0FFF1FE158FF4F808191
:102080009181CF910C94A205C03F60F08C2F0E94EB
:102090006707CF910C9485068C2F0E94DC090E9463
:1020A000B209C3CFCF9108951F93CF93DF93182F19
:1020B000D0E0C0E0893311F4C0E5D0E0812F0E9468
:1020C000BD0F209731F4812FDF91CF911F910C9498
:1020D000D20A8FE99FE00197F1F700C00000219735
:1020E000F0CF0F931F93CF93DF93C62FD42F022FE0
:1020F000FC0182818823A1F060937B020E949605F7
:1021000090937A0280937902C77081E001C0880FB2
:10211000CA95EAF7DF91CF911F910F910C94C80AED
:1021200080917B02681335C08091790290917A0288
:102130000E948705883C910560F510E21D0FCD17C0
:10214000B9F080E28C0F883040F4C77081E001C0A4
:10215000880FCA95EAF70E94C10A183048F481E056
:102160009D2F977001C0880F9A95EAF70E94C80AC0
:10217000802F0E945410183098F4D77081E001C06D
:10218000880FDA95EAF7DF91CF911F910F910C94A8
:10219000C10AC77081E001C0880FCA95EAF7F3CF82
:1021A000DF91CF911F910F910895CF93DF93CFE7E8
:1021B000D2E060E0CE010E94BE242196C11584E0E9
:1021C000D807B9F7DF91CF9108956F927F928F92E0
:1021D0009F92AF92BF92CF92DF92EF92FF920F93B6
:1021E0001F93CF93DF938BE1C82E83E0D82E9BED16
:1021F000E92EF12CE701C659D10936011BC0F501C2
:1022000085909490692DC8010E94BE24682DC80154
:1022100001960E94BE2482E0A80EB11C0E5F1F4FE3
:10222000C017D10761F78EE1680E711C6E96CE154E
:10223000DF0529F08E010E5111095301E0CF7E0117
:1022400086E9E80EF11C86E9C80ED11C83E3E81686
:1022500083E0F80679F6DF91CF911F910F91FF90FF
:10226000EF90DF90CF90BF90AF909F908F907F9036
:102270006F900895CF93C82F6FEF811162E283E2D0
:1022800090E00E94BE246FEFC11165E084E290E00F
:102290000E94BE246FEFC11164E185E290E0CF910E
:1022A0000C94BE2480E00E943A1160E086E290E047
:1022B0000E94BE240E94E5100E94D51081E00C947B
:1022C0003A11CF93C0915A01C2FB992790F9981700
:1022D00099F080FBC2F9C0935A016091590184E0E2
:1022E00090E00E94BE246C2F82E290E00E94BE2407
:1022F00082E0CF910C94960ACF9108950F931F938B
:10230000CF93DF93C42FD0E0CC0FDD1F2EE1629F6F
:10231000C00DD11D112436E9839FC00DD11D11249C
:10232000CE0187960E94AA24082F10E0102F0027C4
:10233000CE0188960E94AA249801282BC901DF911A
:10234000CF911F910F910895462F843038F4753046
:1023500028F46F3018F4672F0C947E1190E080E021
:102360000895CF92DF92FF920F931F93CF93DF9345
:102370006C0100917C0280914B01082BC7E0D0E0FA
:1023800010E0FC2EC8010C2E02C0959587950A948A
:10239000E2F780FD0CC02197A0F7F12C8F2DDF9183
:1023A000CF911F910F91FF90DF90CF900895B601CC
:1023B0008C2F0E94A4110E941D08019761F3EECF9B
:1023C000CF93DF93EC010E94B111BE010E94A411D2
:1023D000DF91CF910C941D08FC01808191810E94B6
:1023E000E01192959F70963091F058F4925F9F7033
:1023F000923058F4803F19F030F4883E30F481E098
:1024000008959A5FF4CF843FD1F380E00895883E29
:10241000B0F3813FD1F7F3CF83E290E00E94AA248A
:10242000823289F484E290E00E94AA24853059F433
:1024300085E290E00E94AA2491E0843109F090E0C6
:10244000892F8170089580E0FCCFCF9384E090E0E5
:102450000E94AA24C82F82E290E00E94AA24982F0A
:102460008C2FCF9108956091B001669570E04BE09C
:1024700050E08CE690E00E949024892B19F481E0D2
:1024800080938E010E949605909388018093870126
:102490000895CF92DF92EF92FF926B017C010E9430
:1024A000E005B701A60188E090E0FF90EF90DF9093
:1024B000CF900C94CF245F926F927F928F929F92D5
:1024C000AF92BF92CF92DF92EF92FF920F931F9342
:1024D000CF93DF9300D00F92CDB7DEB7182F762EB3
:1024E000042F622E9091B00190FF29C0E92FE6954C
:1024F000AE2FB0E0AF53BF4F8C9180938D019E7F84
:10250000923081F59E012F5F3F4F812F0E94EF0592
:102510004B8169818A810E940E0F1093B1017092E4
:10252000B2010093B301662051F06091B001709147
:10253000B1018091B2019091B3010E9449120F90B4
:102540000F900F90DF91CF911F910F91FF90EF901F
:10255000DF90CF90BF90AF909F908F907F906F90C3
:102560005F900895823019F40091B301D6CF863080
:1025700019F41091B101D1CF8930D9F3893169F6BD
:10258000E9518E2F8170582EE695F0E0EA5EFD4FFE
:10259000A590B490BB2482E9E82E81E0F82ED12CDE
:1025A000C12C9AE0892E912CC601B4010E944024CE
:1025B000812F511013C0860F9701402F672D0E9465
:1025C000EF05CA0CDB1C83E0E80EF11C80EBE8167B
:1025D00081E0F80649F70E94310D9FCF861BECCFB2
:1025E000E0EBF1E0438121E1421B08F440E021E00F
:1025F000628181810C945B12E0EBF1E0438121E187
:10260000420F08F44FEF21E0628181810C945B124C
:10261000E0EBF1E0628121E1621B08F460E021E07F
:10262000438181810C945B12E0EBF1E0628121E156
:10263000620F08F46FEF21E0438181810C945B12FB
:10264000E0EBF1E0818121E04381628188500C94CC
:102650005B12E0EBF1E0818121E043816281885FE0
:102660000C945B128091B401882319F081508093FF
:10267000B4016091B0017091B1018091B20190916B
:10268000B3010C9449128091B401833018F48F5F28
:102690008093B4016091B0017091B1018091B20159
:1026A0009091B3010C9449129091B00190FF36C003
:1026B0009170811129C092609093B001662351F00E
:1026C0006091B0017091B1018091B2019091B3011C
:1026D0000E9449126091B001669570E04BE050E0B5
:1026E0008CE690E00E949024892BA9F010928E0134
:1026F00081E080938A0120E04091B3016091B201B2
:102700008091B1010C945B12853210F09864D4CFA3
:10271000880F982BD1CF0E943312EACF0895809171
:10272000B0018695815009F484E261E00C94541361
:102730008091B00186958F5F853208F081E061E07D
:102740000C9454139091B00190FF07C09695981780
:1027500020F0961710F40C94981361E00C94541325
:10276000E0EBF1E083E0808311828FEF828383834B
:10277000148260817181828193810C94491269EE87
:102780007EEF90E080E00E94DB2460E082E090E059
:102790000E94BE2460E083E090E00E94BE2410927C
:1027A0004B0160E084E090E00E94BE2460E082E2A1
:1027B00090E00E94BE2460E085E090E00E94BE248C
:1027C00060E086E090E00E94BE246FEF87E090E03A
:1027D0000E94BE2440E050E0BA0188E090E00E94F0
:1027E000CF2460E08DE090E00E94BE2440E050E005
:1027F000BA0188E190E00E94CF2460E087E190E098
:102800000E94BE2440E050E0BA018CE190E00E94BA
:10281000CF2470E060E080E290E00E94DB2440E0A2
:1028200050E0BA0188E190E00E94CF2480E00E944D
:102830003A110E94521140E050E0BA018FE090E05E
:102840000E94CF2440E050E0BA0183E190E00C9474
:10285000CF2410924901EAEEF0E086E0DF011D92FC
:102860008A95E9F70C94600A3F924F925F926F92BB
:102870007F928F929F92AF92BF92CF92DF92EF9210
:10288000FF920F931F93CF93DF9300D000D00F924E
:10289000CDB7DEB78C01FC0183819481892B31F0A7
:1028A0008081918189238F3F09F09FC50F900F9000
:1028B0000F900F900F90DF91CF911F910F91FF908C
:1028C000EF90DF90CF90BF90AF909F908F907F90D0
:1028D0006F905F904F903F9008950E94B111F82E35
:1028E000682F89819A810E94340A69817A818F2DAB
:1028F0000E94A4117C01F8018281882309F468C533
:10290000970122513F452031310508F034C58FEF42
:1029100093E00E94AA24FEEEEF0E5FE7852E52E0C0
:10292000952E8823A1F180914701877009F4BECFCD
:10293000F8018281882309F4B9CF80915A0182FD80
:10294000B5CF82E00F900F900F900F900F90DF9116
:10295000CF911F910F91FF90EF90DF90CF90BF909C
:10296000AF909F908F907F906F905F904F903F902F
:102970000C94960A811424E09206A9F2C4010E94E4
:10298000AA24811101C0EA943FEF831A930AE1104F
:10299000F1CF1C821B82442443944AE0342E7401FC
:1029A0008FEFE81AF80AC4010E94AA2489831A82C8
:1029B000882309F4B8CF9FEF980F933000F58A83EE
:1029C000498292E0890E911CC7010E94AA248B8340
:1029D000882309F4A8CFFE0131967F01F7012081F9
:1029E0002223E9F2213009F049C09181828191309E
:1029F00041F4F2E0EF0EF11C0E94541009C04701AF
:102A0000EACF923049F422E0E20EF11C0E94BD0FA1
:102A10003FEFE31AF30AE2CF933031F432E0E30EF2
:102A2000F11C0E94D20AF4CF943021F08FEFE81A03
:102A3000F80AEECF92E0E90EF11C30E020E0B70199
:102A40006F5F7F4FF70141818053990B8A30910569
:102A500050F021503109E0F28FE99FE00197F1F742
:102A600000C00000F6CF329EF001339EF00D11241D
:102A70009C012E0F3F1F842F7B01E1CFE22FF0E05E
:102A8000EC57FF4F5490822F86958695869590E05F
:102A9000FC01EC58FF4F64902770712C022E02C08D
:102AA000759467940A94E2F7E1E06E227724FC01C2
:102AB000EC59FF4FA490B12C022E02C0B594A794FC
:102AC0000A94E2F7F1E0AF22BB24FC01EC5AFF4F7D
:102AD000C490D12C02C0D594C7942A95E2F721E086
:102AE000C222DD246114710419F081EE0E94BD0F31
:102AF000A114B10419F086EE0E94BD0F852D0E942D
:102B00005410AB2819F086EE0E94D20A672819F0FB
:102B100081EE0E94D20ACD2809F47ACF8CE26CCFE4
:102B200081E00E94B20A0E947F0AFDCE81E00E94ED
:102B30008A0AF9CF82E0F5CF95EFE9169CE5F90610
:102B400009F46CC008F466C027E245EE66EEF6EFC5
:102B5000EF16FCE5FF0609F437C4882309F456C4D0
:102B600010927B0223E0E2162DE5F20608F05DC02C
:102B70003AEFE3163CE5F30630F4C70182509C457A
:102B8000449708F05EC00E94251290935A018093EA
:102B90005901E1E1EE16ECE5FE0609F436C108F054
:102BA000A4C029E0E2162CE5F20609F41CC108F0E5
:102BB0006DC085E0E8168CE5F80609F408C108F058
:102BC00056C0E3E0EE16ECE5FE0609F4F6C008F0A8
:102BD000FAC080915901816022E0E2162CE5F206EC
:102BE00009F4EEC060915901F0905A0184E090E040
:102BF0000E94BE246F2D82E290E00E94BE240E94BB
:102C0000291491CE27E245EE65EEDEC326E241EEC1
:102C100060EEDAC327E245EE64EED6C326E241EE6B
:102C200062EED2C328E241E0EFCF81E6E8168DE5FF
:102C3000F80609F4A8CF95EAE9169DE5F90609F426
:102C4000A2CF36E1E3163CE5F30609F09DC480917E
:102C500049018A7A91E009F490E09093F0008111A3
:102C600002C189E20E94E9090E94B2095CCE80910A
:102C70005901806237E0E3163CE5F30609F4A0C091
:102C800008F4ADC08091590180649AC080915901C7
:102C90008B7F9DE0E9169CE5F90609F491C0B0F43C
:102CA000809159018E7FFBE0EF16FCE5FF0609F4E9
:102CB00087C0809159018C602CE0E2162CE5F20669
:102CC00008F47EC0809159018D7F7AC080915901AE
:102CD0008F7E3FE0E3163CE5F30609F471C008F48B
:102CE00088C0809159018F7D6BC09DEFE9169CE5EE
:102CF000F90609F486C078F5F5E1EF16FCE5FF0664
:102D000009F491C0A0F480915901837F33E1E31667
:102D10003CE5F30609F454C008F47BC00E94291472
:102D200090915901892F97FB87F9805849C09BEFF3
:102D3000E9169CE5F90609F44EC008F05EC08091E2
:102D40005A018160FAEFEF16FCE5FF0609F04ACF61
:102D500080935A0147CF21E0E2162DE5F20609F4EF
:102D60006EC0B8F48FEFE8168CE5F80609F457C08A
:102D700080915A018360E1149DE5F90648F3809142
:102D80005A01982F909591708E7F892B90FB81F935
:102D9000DFCFE1E6EE16EDE5FE0609F456C0F5EAF2
:102DA000EF16FDE5FF0609F457C022E0E2162DE517
:102DB000F20609F017CF60E043C0809159018260AC
:102DC000809359010FCF809159018460F9CF809190
:102DD00059018860F5CF80915A018260B9CF809106
:102DE00059018061EDCF0E942914809159018068BA
:102DF000E7CF80915901877FE3CF80915A018E7F81
:102E0000A7CF80915A018D7FA3CF809159018F7BED
:102E1000D7CF0E942914809159018F77D1CF80910B
:102E20005A018C7F95CF8091590182FB992790F9A7
:102E300021E0922790FB82F990FB83F9C1CF61E0FA
:102E40008EE090E00E94BE24CDCE90915901892F52
:102E50008F7E94FF8061B4CF90915901892F8E7F2E
:102E600090FF8160ADCF85E3FDCE8091F0008111B0
:102E700004C089E20E94DC09F7CE85E3FBCF8160C4
:102E80008093B00161E086950E9454134CCD4FE8C9
:102E900053E168E973E10E94DA0545CD48E953E161
:102EA0006FE873E1F8CF49E253E160E273E1F3CFF9
:102EB00048E053E164E173E1EECF40EF52E16CEFA3
:102EC00072E1E9CF4CEF52E160EF72E1E4CF43E40D
:102ED00053E162E373E1DFCF61E081E0D5CF65E0EC
:102EE00082E00E94A2131FCD68E086E0FACF64E181
:102EF0008FE0F7CF67E185E1F4CF62E289E1F1CFBE
:102F000061E083E2C1CF0E942914FFEF24E33CE09B
:102F1000F15020403040E1F700C000000E947405ED
:102F200002CD81E057C380E055C3C7010E940C0A5F
:102F3000D82E61C32F2D2F70C22E8F2D807F19F0B8
:102F4000C29490EFC922DD20B9F0CC2069F080E274
:102F50008E0D883010F0811009C080914901C82A77
:102F6000C09249010E94B2098E2D4DC08091480146
:102F7000C82AC0924801F6CF8E2D0E94D20ACC20DA
:102F800009F443C080E28E0D883010F0811004C037
:102F90008C2D0E94AB0906C0C09480914801C822C4
:102FA000C09248010E94B20930C03F2D3F70C32E2D
:102FB0008F2D807F803219F0C29480EFC822882044
:102FC00089F081E0881609F497C0DD2009F4A1C0DA
:102FD000BB2009F497C0F801858180FFC5CF8F70B1
:102FE000858390C020915A0122FF63C0DD2009F43F
:102FF00059C0CC2039F080914901C82AC0924901BA
:103000000E94B20980E00E94BD0F292D2850330B89
:103010002430310520F40E94CE050E94280BAA20FE
:10302000A9F08091470180FD11C0F80112828595B9
:10303000859585950E94B20AC8010E94341480913A
:1030400047018595859585950E948A0AF8018281B8
:10305000882309F42BCC0E949605909378018093E5
:10306000770180917901882309F420CC10927901AD
:103070000E94CE050F900F900F900F900F90DF9150
:10308000CF911F910F91FF90EF90DF90CF90BF9065
:10309000AF909F908F907F906F905F904F903F90F8
:1030A0000C94280B80E00E94D20ACC2009F4ADCF0A
:1030B0006FCFDD20A1F090914A018C2D892BB110AA
:1030C00003C00E94C80AA1CFE1E0BE12FACF22FDE0
:1030D0009CCF981709F499CF80934A0196CFB110ED
:1030E00006C00E94A5098C2D0E94C10A8ECFF1E076
:1030F000BF1609F48ACFF5CFDD2031F025E02B157E
:1031000008F483CF8C2DDDCF34E03B1508F47DCF60
:10311000EACFBB2041F3F9E38F1209C02FEF37EE5E
:1031200083E0215030408040E1F700C000008E2D48
:103130000E94D20A6ACF8F2D86958695837061F0A2
:10314000813009F062CFC7019370D11002C090E0C6
:1031500080E00E94A20559CFC7019370D11002C030
:1031600090E080E00E94B80550CF8E2DDD2029F040
:103170000E9467070E94850648CF0E94AC06FACFDE
:103180008F2D837091F5D11040CF4E2D42954695ED
:103190004770440F440F8E2D8F70042E01C0880F8E
:1031A0000A94EAF72E2D2071E4FE07C02FE030E0EC
:1031B00001C0220F4A95EAF720953F2D36953695A6
:1031C0003370323069F050F440914B01313029F0C6
:1031D000822B84230E94BD0A18CF842B822BFACF26
:1031E000282B80914B018227F5CF8695DD2011F0A9
:1031F0008F2D8170882309F408CF4E2D4295469576
:103200004770440F440F8E2D8F70042E01C0880F1D
:103210000A94EAF72E2D2071E4FE07C02FE030E07B
:1032200001C0220F4A95EAF720953F2D3695369535
:103230003370323069F050F440917C02313029F023
:10324000822B84230E947B0AE0CE842B822BFACF30
:10325000282B80917C028227F5CF9F2D9F70F92E1D
:10326000DD2029F0892F0E94B20A8E2D2ACF8E2DC3
:103270000E94C10A8F2D0E948A0AC7CE8E2DE2EFCE
:103280008E16B1F1E81570F0F0EF8F16D1F021EF46
:10329000821691F0DD2009F45EC0B11065CE8F2D4D
:1032A0008F712AC033EF831651F194EF8912F2CF58
:1032B00080915A0182FF2FC08F2D8F71DD20D9F2AE
:1032C0001BC0DD2081F0E4E0EB1508F49ECE2F2D2D
:1032D0002F7181E090E001C0880F2A95EAF7909164
:1032E0007C028927AFCFF5E0FB1508F48ECEEFCF37
:1032F0008F2D8F71D110BFCF0E94B20A86CE80E091
:10330000DD2009F49FCF9F2D9F7181E001C0880FC0
:103310009A95EAF797CFDD2099F02F2D2F71F22E95
:10332000822F0E94B20A80915A0182FD07C038E0C4
:10333000F39EC00111248360809347018F2DDCCF61
:1033400081E00E94960A81E08B1508F05ECE82E053
:103350000E94960A5ACEBB2059F0893309F0E7CE75
:103360009FEFE7EEF3E09150E040F040E1F7DDCE73
:103370008F2D8F7180CFF0E1EF16FFE5FF0609F486
:10338000CFCB21E1E2162FE5F20609F4D3CB93EF80
:10339000E9169CE5F90609F439CC08F0CDCBF8ED37
:1033A000EF16FCE5FF0609F42DCC29EDE2162CE51D
:1033B000F20609F437CC37EDE3163CE5F30609F0E5
:1033C000CCCB26E241EE61EEC8010E947110ABCA7F
:1033D00030E1E3163FE5F30609F4A8CB91E1E916E5
:1033E0009FE5F906A1F682E0A2CB85E0DE01119609
:1033F00001900D928A95E1F7F801228189819A81E5
:1034000021116BCA0E940C0AF82E6FCAF6E1EF1662
:10341000FCE5FF0609F429CD8091490182722CEC6C
:10342000E2162CE5F20609F452CD08F06DC096ECD8
:10343000E9169CE5F90609F436CDE8F5F3ECEF164C
:10344000FCE5FF0609F423CD28F532ECE3163CE554
:10345000F30609F0C1C08091B00180FF10CD8E7FCE
:103460008093B0016091B0017091B1018091B2017F
:103470009091B3010E94491210928E018FEF90E754
:10348000E2E081509040E040E1F700C000000E947F
:10349000310D49CA94ECE9169CE5F90609F4FECC15
:1034A00040E253E169E273E1E5ECEE16ECE5FE067D
:1034B00009F4F1CC91C0F9ECEF16FCE5FF0609F434
:1034C000FCCC88F437ECE3163CE5F30609F4F0CCC9
:1034D00044E153E168E073E198ECE9169CE5F906F4
:1034E00009F4D9CC79C0EAECEE16ECE5FE0609F455
:1034F000E9CC42E353E163E473E1FBECEF16FCE556
:10350000FF0609F4C8CC68C021EDE2162CE5F206EE
:1035100009F4EDCCB8F48EECE8168CE5F80609F465
:10352000DECC08F4D9CCEFECEE16ECE5FE0609F49F
:10353000DBCC6EE089E0F0EDEF16FCE5FF0609F468
:10354000D0CC4AC024EDE2162CE5F20609F4D5CC25
:1035500078F482EDE8168CE5F80609F4CBCC61E04E
:1035600088E193EDE9169CE5F90609F48DCC34C0A9
:10357000E5EDEE16ECE5FE0609F4C2CCFDE5EF162E
:10358000FF0609F4D0C928C02AE5E2162DE5F206A7
:1035900009F4C7CC68F4E1148CE5F80609F4B3CC5F
:1035A0009EEDE9169CE5F906B9F40E94BF13BBC96C
:1035B000EBE5EE16EDE5FE0609F4B5CCFCE5EF16FD
:1035C000FDE5FF0649F480915A0182FB882780F9C6
:1035D00091E089270E946111F8018281E080F180E9
:1035E000882309F4A2CCC7010E94B111D82E682FFC
:1035F000C7010E94340AB7018D2D0E94A4110E94B8
:103600001D087C01882EF801D280B580B2943FE07D
:10361000B322809147018770C1F0AD2CDD20B1F05D
:103620008F2D807F803421F080E28E0D883068F00D
:1036300080915A0182FD09C082E00E94960A809121
:1036400047018770AA24A3948111A12C9F2C9294E6
:103650002FE09222FBE0F91508F4D7CCE92DF0E039
:10366000E95CFA4D0C9468241F93CF93DF9380910B
:103670001401807FA9F480911101882389F0809141
:103680004601D091150160910F0170911001A09138
:103690001201B0911301C62FC72316E0D81304C03E
:1036A000DF91CF911F91089590E0109711F0CF3FD7
:1036B00019F401968770F2CF189F9001199F300D71
:1036C0001124F901EA5EFE4F41814713F2CF408198
:1036D0004613EFCF42814111ECCF438154814A1B05
:1036E0005B0B483C510528F7809114018F70806175
:1036F00080931401F901E55EFE4F80818F70806137
:1037000080838FE091E00E943414DF91CF911F916C
:103710000C94020AAF92BF92CF92DF92EF92FF9287
:103720000F931F93CF93DF93CDB7DEB761970FB69B
:10373000F894DEBF0FBECDBF8C0185E0F801DE013D
:103740001D9601900D928A95E1F7F801E2808FE0D5
:10375000A82E81E0B82E60911201709113016115BD
:10376000710509F432C190910F0140911001892F28
:1037700084238F3F09F429C120813181C380D48003
:10378000F0901101F601E61BF70BFF2009F4E8C0E9
:1037900080911401582F507FE83CF10508F0ABC030
:1037A000511177C0FE2C431321C092131FC0E110AA
:1037B0001DC08F70806180931401C5010E94341474
:1037C00080911401F80185838F2D61960FB6F894CE
:1037D000DEBF0FBECDBFDF91CF911F910F91FF9044
:1037E000EF90DF90CF90BF90AF900895CD2829F053
:1037F000822F83238F3F09F003C180E0F82FF170FF
:10380000DF2E80FF3CC0809146014091150156E0BB
:10381000841315C02D873E878D859E850E94E011FB
:10382000292F22952F702230F0F0243018F59F7048
:10383000F1F0F8019581907FD1F4D12C1EC090E079
:10384000589FF001599FF00D1124EA5EFE4F6181EF
:10385000361306C06081261303C06281E6120FC0D2
:1038600001968770D5CF9F7011F0882331F3805E69
:10387000883018F3C8010E943414FD2CA5CFEE2027
:1038800009F4A2CF80911401816080931401F12C7E
:103890009BCF431306C0921304C0F801EE2009F435
:1038A00079C0C8010E94EC11882309F1EE20F9F0DB
:1038B00080911401803270F020910F01309110013D
:1038C00038872F831986DB86CA868C87CE010796B8
:1038D0000E94341486E0F801AFE0B1E001900D924F
:1038E0008A95E1F70E94341BFF24F3946DCFC80141
:1038F0000E943414F9CF51110AC08FE091E00E9468
:10390000341486E0F50111928A95E9F7C0CF43138C
:103910000FC092130DC0E1100BC0F8018583C801E0
:103920000E94341486E0F50111928A95E9F74CCF94
:10393000C8010E94EC118823D1F2EE20C1F28091DF
:103940001401803238F220910F01309110013A8336
:1039500029831B82DD82CC828E83CE010196B8CF73
:10396000E83CF105F8F6FE2CEE2009F243131FC0E7
:1039700092131DC08091140180FD10C0982F907F7C
:1039800069F0F8018583903F31F0982F907F905F28
:103990008F70892B8583C8010E94341486E0F8015A
:1039A000AFE0B1E001900D928A95E1F70DCFC8012B
:1039B0000E94EC1181118ECF80911401816080935F
:1039C0001401C8010E943414FFCEEE2009F48FCFF9
:1039D000C8010E94EC11F82E882309F488CF86E0F4
:1039E000F801AFE0B1E001900D928A95E1F7809186
:1039F0000F01909110010E94E0110E94341BE4CE4F
:103A000081E08E25FBCE1F93CF93DF93CDB7DEB73A
:103A100067970FB6F894DEBF0FBECDBF4B8B5C8BA4
:103A20006D8B7E8B8F8B6111109248011A8A198AD7
:103A300085E0FE017396DE011D9601900D928A9538
:103A4000E1F786E0FE013D96DE01179601900D92AA
:103A50008A95E1F7CE0107960E948A1B882389F098
:103A600016E08091460190911501891349C067962F
:103A70000FB6F894DEBF0FBECDBFDF91CF911F917F
:103A8000089586E0FE013796DE01119601900D92B1
:103A90008A95E1F78A859B85892B11F38F8198851B
:103AA00089238F3FE9F22091150130E0C901019689
:103AB00087709927409146014817190671F40E94B2
:103AC0002914109215011092460186E0EFE0F1E012
:103AD000DF011D928A95E9F7C3CF96E0929FD0014E
:103AE000939FB00D1124AA5EBE4FFE013196019046
:103AF0000D929A95E1F7809315010E94020AB0CFCA
:103B0000819FC00111248A5E9E4F0E948A1B8823D8
:103B100009F4ADCF8091460190E001968770992716
:103B2000809346019ECF4F925F926F927F928F92C9
:103B30009F92AF92BF92CF92DF92EF92FF920F933C
:103B40001F93CF93DF93CDB7DEB72A970FB6F894C4
:103B5000DEBF0FBECDBF8E010F5F1F4F8AE0F801A1
:103B600011928A95E9F79DEAE92E90E0F92E680115
:103B700022EB422E20E0522E66246394712C41ECFD
:103B8000842E40E0942EF70181917F018F3F09F44C
:103B900045C0F894E82FE295EF70F0E021A98F700E
:103BA000A30102C0440F551F8A95E2F7CA01922F64
:103BB000982B91AB92A98095892382AB789400C011
:103BC000E2EBF0E021E030E0B12CA12C41914F3F3D
:103BD00009F47EC0A42FA295AF70B0E0D0968C916E
:103BE00090E04F7002C0959587954A95E2F780FD69
:103BF0006FC0C901A82AB92A220F331F8E169F064B
:103C000029F7F701319780818F3F11F00E94C30798
:103C100050EA5A95F1F7F601B182A082F2E0CF0E98
:103C2000D11C4E145F0409F0AECF4AE050E0B80159
:103C30008FE491E00E949D24FF24F394009709F4FF
:103C4000F12C892B09F447C08AE0F801AFE4B1E018
:103C500001900D928A95E1F781E080934E010E94D8
:103C6000960590934D0180934C0180914C01909169
:103C70004D010E948705059790F180914F01909129
:103C8000500190936B0180936A0180915101909152
:103C9000520190936D0180936C018091530190913A
:103CA000540190936F0180936E0180915501909122
:103CB000560190937101809370018091570190910A
:103CC0005801909373018093720110924E0107C0C6
:103CD00090E080E08FCF80914E018111C6CF8F2D73
:103CE0002A960FB6F894DEBF0FBECDBFDF91CF91FD
:103CF0001F910F91FF90EF90DF90CF90BF90AF900A
:103D00009F908F907F906F905F904F90089590E07C
:103D100080E00E94B824893E9E4F11F40C940C124E
:103D200080E0089578941F921FB61F9211248F93FC
:103D30009F93AF93BF938091BB019091BC01A091E1
:103D4000BD01B091BE010196A11DB11D8093BB01C3
:103D50009093BC01A093BD01B093BE01BF91AF9100
:103D60009F918F911F901FBE1F901895CDB7DEB702
:103D700060970FB6F894DEBF0FBECDBF0E949605C8
:103D8000909376018093750184B7806884BF84B76F
:103D9000806884BF81EC97E09093E7008093E60011
:103DA00085B7886085BF8BB780688BBF8BE48093B5
:103DB00089028093BE02809395028AE580938802EF
:103DC0008093BD02809394028B9A80E0815009F029
:103DD0005FC28B9878948BE083BF8AEF8CBF82E0C0
:103DE00089BF0E940C12811102C00E9452110DEA7B
:103DF00010E0F80181918F018F3F11F00E94C307FD
:103E0000F0E0023B1F07A9F702EB10E0D8018D910B
:103E10008D018F3F11F00E94C307B0E0013C1B07EA
:103E2000A9F78AE0EAE6F1E0DF01282F1D922A9542
:103E3000E9F7EFE4F1E0DF011D928A95E9F70E94CE
:103E4000871E811102C00E94BF1382E090E00E9491
:103E5000AA2480935E010E94251290935A018093B8
:103E600059010E94931DEFE3FCE93197F1F700C07F
:103E700000000E94931D80916A0180FF08C06FEFCF
:103E80007FEF90E080E00E94DB240E94740583E0D5
:103E900090E00E94AA240E94BD0AD59ADD988091E4
:103EA0005B01811133C00E94871E811104C00E94F2
:103EB000BF130E94B01388E090E00E94B224609388
:103EC000B0017093B1018093B2019093B3016E7F02
:103ED00071F40E94B01388E090E00E94B2246093D5
:103EE000B0017093B1018093B2019093B3010E942D
:103EF000E00510928E018091B00180FF04C060E067
:103F000086950E94541381E080935B0180E690E0E7
:103F10009093B8018093B701FFEF20E742E0F150A2
:103F200020404040E1F700C00000E4E0EE2EE1E078
:103F3000FE2E8091A30210917401882309F4B0C170
:103F40001092A3020E9496059093760180937501CA
:103F50001123E9F0109274010E9429140E94CE05E9
:103F60000E94280B10925D0180915C01882349F02A
:103F70008091B00181608093B00160E086950E94DD
:103F800054130E9433128091740181118BC10E94DD
:103F90002E0B80917102882309F45FC18091880201
:103FA00084FF5BC10E94931D882359F08FB7F8945A
:103FB0004091BB015091BC016091BD017091BE0167
:103FC0008FBFAAE6B1E0EFE5F1E010E000E0602F7E
:103FD0008D919D91419151914817590709F49BC1C9
:103FE0004827592720E0CC24C394D12C5A01AC2077
:103FF000BD20AB2809F489C12F8368879C012C213F
:104000003D2191E0232B09F490E099870E949605C9
:104010008160782F9B878A874F81588569858B853A
:104020000E94031D000F111FF801E15AFE4F80810D
:104030009181C826D926D182C08280918E018823A1
:10404000D1F180918D01E091B001E695E81BE093FC
:104050008901823009F076C1F0E0EE5EFE4FE49116
:104060000E2F10E098E8C92E9FE0D92E80918A018A
:10407000882361F010928A010E949605909388012E
:104080008093870110928C0110928B010E949605FB
:10409000E0918701F09188018E1B9F0B8F3F9F4716
:1040A00050F4E00FF11FF0938801E093870187E857
:1040B00091E0F601099586E0E1E8F1E0DE01119674
:1040C00001900D928A95E1F7D0908301C090840110
:1040D0001091850100918601109283011092840154
:1040E00010928501109286018D2D8C2909F448C00B
:1040F00080917F01909180010E9487059C019091A1
:104100007B01992309F4A9C325313105C8F19F3FEB
:1041100019F09F5F90937B01DD2059F00E944707C3
:104120009FEF1D140CF491E0899F802D1124809342
:104130008301CC2059F00E9447079FEF1C140CF418
:1041400091E0899F802D1124809384013091830117
:104150003323B1F020918401222391F045EB340305
:10416000C0011124992309F446C19093830145EBC2
:10417000240390011124332309F441C130938401B5
:10418000812F802B09F448C080917D0190917E01A0
:104190000E9487059C0190917A01992309F458C3E4
:1041A00021353105C8F19F3F19F09F5F90937A0147
:1041B000112359F00E9425079FEF11160CF491E08E
:1041C000899F802D112480938501002359F00E943E
:1041D00025079FEF10160CF491E0899F802D112484
:1041E00080938601309185013323B1F020918601BF
:1041F000222391F045EB3403C0011124992309F4E3
:1042000002C19093850145EB2403900111243323CF
:1042100009F4FDC03093860180918301909184015F
:10422000892B90918501892B90918601892B11F022
:104230000E94850686E0FE013196A1E8B1E001907A
:104240000D928A95E1F70E94CE0590916901891738
:1042500021F0809369010E94280B0E94D60C0E94D5
:104260002E0B80917102882361F18091940284FF6A
:1042700028C080916702803221F5E0914702E15029
:10428000E33108F03BC1F0E0ED5BFA4D0C9468249B
:10429000A895AFE9BFE01197F1F700C0000096CDF7
:1042A000112321F10E949C0F0E94931DEAE6F1E088
:1042B00081919191892B09F0A4C281E0E437F8073C
:1042C000B9F780917901811134CE80917701909175
:1042D00078010E9487058133954708F42ACE80E053
:1042E0000E94280B81E08093790123CE8091750193
:1042F000909176010E948705069708F448CE81E0E8
:10430000809374010E949C0F3ECE2F5FCC0CDD1C6D
:104310002F3009F06BCE0F5F1F4F0530110509F0EC
:1043200056CE8FEF8C878D871E860E949605816002
:10433000782F988B8F874C855D856E8588890E9444
:10434000031D7BCE863059F4F0E0E15FFE4FE4912F
:104350000E2F10E088E7C82E8FE0D82E87CE893048
:1043600061F4E695F0E0E45FFE4FE4910E2F10E07B
:10437000B4EECB2EBEE0DB2E79CE8F3061F4E69525
:10438000F0E0E75FFE4FE4910E2F10E0A6E7CA2EA3
:10439000AEE0DA2E6BCE853159F4F0E0EA5FFE4FE5
:1043A000E4910E2F10E0F8E2CF2EFEE0DF2E5ECE7D
:1043B00008E210E06FE9C62E6DE0D62E883109F4D0
:1043C00055CE833241F4F70105911491EFE1CE2EE1
:1043D000EFE0DE2E4BCE04EF11E076E6C72E7DE057
:1043E000D72E843209F442CE00ED17E05FEDC52EE2
:1043F00055E0D52E3BCE81E080938301B8CE81E09D
:1044000080938401BDCE81E080938501FCCE81E064
:104410008093860101CF1092480289E0809349027F
:104420001FC080914802823009F405C28330D9F060
:10443000813009F063C02FB7F8946091BB0170918F
:10444000BC018091BD019091BE012FBF0E946E24DE
:104450006093490270934A0280934B0290934C02FE
:1044600007E412E0ADC180916A0190916B01982739
:104470008927982790934A028093490280916C0182
:1044800090916D0198278927982790934C028093EB
:104490004B0280916E0190916F0198278927982790
:1044A00090934E0280934D02809170019091710122
:1044B0009827892798279093500280934F028091E4
:1044C000720190917301982789279827909352023F
:1044D00080935102C5CF80914802823079F4609177
:1044E000490270914A0280914B0290914C020E94C5
:1044F0006E2486E290E00E94BE24B2CF8FEF8093BC
:104500004702AECF40914A02609149028091480231
:104510000E947E1198278927982790934C028093B8
:104520004B029ECFC0904B02D0904C02DC24CD2495
:10453000DC2480914802009149029EE1099F80019C
:104540001124A6E98A9F000D111D112480914A02B1
:1045500090E0880F991F080F191F6D2DC8018796CD
:104560000E94BE246C2DC8018896C5CF0E94E5101C
:1045700077CF809148028138D9F068F4803809F00B
:104580006FCF20E0409149026091B2018091B1016A
:104590000E945B1265CF823879F1833809F060CFD1
:1045A00020E04091B30160914A0280914902F0CF2E
:1045B00060E0809149020E945413909149028091D9
:1045C000B001911111C08E7F8093B00110928E01C5
:1045D000BFEFE0E7F2E0B150E040F040E1F700C0AB
:1045E00000000E94310D3CCF81608093B00160E0FB
:1045F00086950E94541334CF809149028093B40170
:104600002FCF809148028138A9F030F4803809F02A
:1046100027CF8091B30102CF8238A1F0833809F00F
:104620001FCF8091B101809349028091B2018093A4
:104630004A0216CF8091B00180FF02C08695EECE6F
:1046400080E0ECCE8091B401E9CE6091B001709130
:10465000B1018091B2019091B3010E94491200CF43
:1046600080E180934802FCCE81E08093480281E89B
:10467000D5CE00914802109149021027012710273A
:1046800037E4C32E32E0D32EA0904A02B12CC501EC
:10469000895B9D4F5C01C80181589D4FAC14BD04DE
:1046A00009F4DECE0138A1E01A0750F40E94AA24D2
:1046B000F60184830F5F1F4FBFEFCB1ADB0AEBCFEE
:1046C000D60114961C92F6CF00914802109149022F
:1046D00010270127102727E4A22E22E0B22EC09037
:1046E0004A02C00ED12ED11CC80181589D4F0C1515
:1046F0001D0509F4B5CE0138E1E01E0728F4D50107
:1047000014966C910E94BE24BFEFAB1ABB0A0F5FD8
:104710001F4FEACF0E94D510A3CE84E0A2CF009114
:1047200048021091490210270127102797E4A92E6B
:1047300092E0B92EC0904A02D12CF601E95BFD4F00
:104740006F01C8018796AC14BD0409F489CE083501
:10475000F2E01F0758F40E94AA24D50114968C9306
:104760000F5F1F4FFFEFAF1ABF0AEBCFF5011482A7
:10477000F7CF009148021091490210270127102716
:1047800087E4A82E82E0B82EC0904A02C00ED12E37
:10479000D11CC8018796C016D10609F461CE083530
:1047A00022E0120728F4D50114966C910E94BE24D1
:1047B000BFEFAB1ABB0A0F5F1F4FEBCF0E942E0B50
:1047C0008091940284FFFACF44E952E068E0C80186
:1047D0000E94780C085F1F4FE2E007361E0781F742
:1047E0008091940284FF0AC044E952E060E090E0C6
:1047F00080E00E94780C1092670263CD0E942E0B1D
:10480000EFCFF89421B3939A822F8C6081BB92B33F
:104810003CE0932792BB4FE788E391E04150804012
:104820009040E1F700C0000082B3832782BB21BB28
:104830009398789446CD86E290E00E94AA24109244
:10484000490210924A0210924B0280934C0208CE09
:104850002B30310508F0A9CCDFCC2B30310508F026
:1048600058CC8ECC87FB082E062687FD819567FDE8
:1048700061950E9484240EF4919507FC819508951A
:10488000AA1BBB1B51E107C0AA1FBB1FA617B70776
:1048900010F0A61BB70B881F991F5A95A9F7809592
:1048A0009095BC01CD01089597FB072E16F4009456
:1048B00007D077FD09D00E94402407FC05D03EF4C4
:1048C000909581959F4F0895709561957F4F0895BC
:1048D000EE0FFF1F0590F491E02D099469279627AC
:1048E000692778278727782708950E94262533236C
:1048F00012F48A1B9B0B0C947F240E942625B7FF81
:104900000895821B930B0895991B79E004C0991FA9
:10491000961708F0961B881F7A95C9F78095089519
:10492000FC014150504030F001900616D1F731970C
:10493000CF010895882799270895FB01DC0104C061
:104940008D910190801921F441505040C8F7881B87
:10495000990B0895E199FECF9FBB8EBBE09A9927F2
:104960008DB30895A6E1B0E044E050E00C94E32458
:10497000A8E1B0E042E050E00C94E324262FE19956
:10498000FECF9FBB8EBBE09A01970DB2021631F0AD
:104990002DBB0FB6F894E29AE19A0FBE08950396E4
:1049A000272F0E94BF240E94BE24252F0E94BF24CF
:1049B000242F0C94BF240196272F0E94BF240C940F
:1049C000BE24DC01CB01FC01E199FECF06C0FFBB98
:1049D000EEBBE09A31960DB20D9241505040B8F7BF
:1049E00008950E942625A59F900DB49F900DA49F29
:1049F000800D911D11240895B7FF0C94F1240E949D
:104A0000F124821B930B0895A1E21A2EAA1BBB1B53
:104A1000FD010DC0AA1FBB1FEE1FFF1FA217B3078A
:104A2000E407F50720F0A21BB30BE40BF50B661FA0
:104A3000771F881F991F1A9469F760957095809564
:104A400090959B01AC01BD01CF010895A29FB001DB
:104A5000B39FC001A39F700D811D1124911DB29FB2
:104A6000700D811D1124911D0895F894FFCF9A17A0
:104A70009A17D517D5179B18B51805180518C0181B
:104A80002D193E193E190B2211226B2282229222ED
:104A9000B622B922012325237E227E22302334230D
:0C4AA000392364238A238D238F23B9233C
:104AAC007105050DA10CD20CCE0C700501191A1B49
:104ABC001C1D1E1F202122010201FF5A818283E24C
:104ACC0000E900EA00B500B600B700CD008301CCC8
:104ADC00008A01920194012102230224022502265C
:104AEC000227022A02B300B4006F007000629161C9
:104AFC0090609263936494050636353433323130CA
:104B0C000700010202020206060609090909090941
:104B1C000F0F0F0F0F0F1515151819191919191942
:064B2C00191919192324D8
:00000001FF
